{
  "contractName": "Voting",
  "abi": [
    {
      "inputs": [],
      "stateMutability": "nonpayable",
      "type": "constructor"
    },
    {
      "anonymous": false,
      "inputs": [
        {
          "indexed": false,
          "internalType": "uint256",
          "name": "candidateId",
          "type": "uint256"
        },
        {
          "indexed": false,
          "internalType": "string",
          "name": "name",
          "type": "string"
        }
      ],
      "name": "CandidateAdded",
      "type": "event"
    },
    {
      "anonymous": false,
      "inputs": [
        {
          "indexed": false,
          "internalType": "uint256",
          "name": "candidateId",
          "type": "uint256"
        },
        {
          "indexed": false,
          "internalType": "bytes32",
          "name": "voterHash",
          "type": "bytes32"
        }
      ],
      "name": "VoteCasted",
      "type": "event"
    },
    {
      "anonymous": false,
      "inputs": [
        {
          "indexed": false,
          "internalType": "bytes32",
          "name": "voterHash",
          "type": "bytes32"
        }
      ],
      "name": "VoterRegistered",
      "type": "event"
    },
    {
      "inputs": [],
      "name": "admin",
      "outputs": [
        {
          "internalType": "address",
          "name": "",
          "type": "address"
        }
      ],
      "stateMutability": "view",
      "type": "function",
      "constant": true
    },
    {
      "inputs": [
        {
          "internalType": "uint256",
          "name": "",
          "type": "uint256"
        }
      ],
      "name": "candidates",
      "outputs": [
        {
          "internalType": "uint256",
          "name": "id",
          "type": "uint256"
        },
        {
          "internalType": "string",
          "name": "name",
          "type": "string"
        },
        {
          "internalType": "uint256",
          "name": "voteCount",
          "type": "uint256"
        }
      ],
      "stateMutability": "view",
      "type": "function",
      "constant": true
    },
    {
      "inputs": [],
      "name": "candidatesCount",
      "outputs": [
        {
          "internalType": "uint256",
          "name": "",
          "type": "uint256"
        }
      ],
      "stateMutability": "view",
      "type": "function",
      "constant": true
    },
    {
      "inputs": [
        {
          "internalType": "bytes32",
          "name": "",
          "type": "bytes32"
        }
      ],
      "name": "hasVoted",
      "outputs": [
        {
          "internalType": "bool",
          "name": "",
          "type": "bool"
        }
      ],
      "stateMutability": "view",
      "type": "function",
      "constant": true
    },
    {
      "inputs": [
        {
          "internalType": "bytes32",
          "name": "",
          "type": "bytes32"
        }
      ],
      "name": "isEligible",
      "outputs": [
        {
          "internalType": "bool",
          "name": "",
          "type": "bool"
        }
      ],
      "stateMutability": "view",
      "type": "function",
      "constant": true
    },
    {
      "inputs": [
        {
          "internalType": "bytes32",
          "name": "voterHash",
          "type": "bytes32"
        }
      ],
      "name": "registerVoterHash",
      "outputs": [],
      "stateMutability": "nonpayable",
      "type": "function"
    },
    {
      "inputs": [
        {
          "internalType": "bytes32",
          "name": "voterHash",
          "type": "bytes32"
        }
      ],
      "name": "checkVoterStatus",
      "outputs": [
        {
          "internalType": "bool",
          "name": "",
          "type": "bool"
        }
      ],
      "stateMutability": "view",
      "type": "function",
      "constant": true
    },
    {
      "inputs": [
        {
          "internalType": "uint256",
          "name": "candidateId",
          "type": "uint256"
        },
        {
          "internalType": "bytes32",
          "name": "voterHash",
          "type": "bytes32"
        }
      ],
      "name": "vote",
      "outputs": [],
      "stateMutability": "nonpayable",
      "type": "function"
    },
    {
      "inputs": [
        {
          "internalType": "bytes32",
          "name": "voterHash",
          "type": "bytes32"
        }
      ],
      "name": "getVoter",
      "outputs": [
        {
          "internalType": "bool",
          "name": "",
          "type": "bool"
        }
      ],
      "stateMutability": "view",
      "type": "function",
      "constant": true
    },
    {
      "inputs": [],
      "name": "getCount",
      "outputs": [
        {
          "internalType": "uint256[]",
          "name": "",
          "type": "uint256[]"
        }
      ],
      "stateMutability": "view",
      "type": "function",
      "constant": true
    },
    {
      "inputs": [
        {
          "internalType": "string",
          "name": "_name",
          "type": "string"
        }
      ],
      "name": "addCandidate",
      "outputs": [],
      "stateMutability": "nonpayable",
      "type": "function"
    }
  ],
  "bytecode": "0x608060405234801561001057600080fd5b5033600460006101000a81548173ffffffffffffffffffffffffffffffffffffffff021916908373ffffffffffffffffffffffffffffffffffffffff160217905550611282806100616000396000f3fe608060405234801561001057600080fd5b50600436106100a95760003560e01c806368bb8bb61161007157806368bb8bb61461017a578063a87d942c14610196578063b44cf604146101b4578063d8e63542146101e4578063e2a18da014610214578063f851a44014610230576100a9565b80631b4613cb146100ae5780632d35a8a2146100de5780633477ee2e146100fc5780633c74e0d91461012e578063462e91ec1461015e575b600080fd5b6100c860048036038101906100c391906109b2565b61024e565b6040516100d591906109fa565b60405180910390f35b6100e661026e565b6040516100f39190610a2e565b60405180910390f35b61011660048036038101906101119190610a75565b610274565b60405161012593929190610b3b565b60405180910390f35b610148600480360381019061014391906109b2565b610326565b60405161015591906109fa565b60405180910390f35b61017860048036038101906101739190610cae565b610346565b005b610194600480360381019061018f9190610cf7565b610492565b005b61019e610638565b6040516101ab9190610df5565b60405180910390f35b6101ce60048036038101906101c991906109b2565b6106f5565b6040516101db91906109fa565b60405180910390f35b6101fe60048036038101906101f991906109b2565b61071f565b60405161020b91906109fa565b60405180910390f35b61022e600480360381019061022991906109b2565b610749565b005b61023861089f565b6040516102459190610e58565b60405180910390f35b60026020528060005260406000206000915054906101000a900460ff1681565b60035481565b600060205280600052604060002060009150905080600001549080600101805461029d90610ea2565b80601f01602080910402602001604051908101604052809291908181526020018280546102c990610ea2565b80156103165780601f106102eb57610100808354040283529160200191610316565b820191906000526020600020905b8154815290600101906020018083116102f957829003601f168201915b5050505050908060020154905083565b60016020528060005260406000206000915054906101000a900460ff1681565b600460009054906101000a900473ffffffffffffffffffffffffffffffffffffffff1673ffffffffffffffffffffffffffffffffffffffff163373ffffffffffffffffffffffffffffffffffffffff16146103d6576040517f08c379a00000000000000000000000000000000000000000000000000000000081526004016103cd90610f1f565b60405180910390fd5b600360008154809291906103e990610f6e565b919050555060405180606001604052806003548152602001828152602001600081525060008060035481526020019081526020016000206000820151816000015560208201518160010190805190602001906104469291906108c5565b50604082015181600201559050507fe83b2a43e7e82d975c8a0a6d2f045153c869e111136a34d1889ab7b598e396a360035482604051610487929190610fb6565b60405180910390a150565b6001600082815260200190815260200160002060009054906101000a900460ff166104f2576040517f08c379a00000000000000000000000000000000000000000000000000000000081526004016104e990611032565b60405180910390fd5b6002600082815260200190815260200160002060009054906101000a900460ff1615610553576040517f08c379a000000000000000000000000000000000000000000000000000000000815260040161054a9061109e565b60405180910390fd5b60008211801561056557506003548211155b6105a4576040517f08c379a000000000000000000000000000000000000000000000000000000000815260040161059b9061110a565b60405180910390fd5b60008083815260200190815260200160002060020160008154809291906105ca90610f6e565b919050555060016002600083815260200190815260200160002060006101000a81548160ff0219169083151502179055507fc8058fd305bbbcba2a5a8df5471ff25dd0f41cc61f4e2a9f0ed519b44f848847828260405161062c929190611139565b60405180910390a15050565b6060600060035467ffffffffffffffff81111561065857610657610b83565b5b6040519080825280602002602001820160405280156106865781602001602082028036833780820191505090505b5090506000600190505b60035481116106ed5760008082815260200190815260200160002060020154826001836106bd9190611162565b815181106106ce576106cd611196565b5b60200260200101818152505080806106e590610f6e565b915050610690565b508091505090565b60006002600083815260200190815260200160002060009054906101000a900460ff169050919050565b60006001600083815260200190815260200160002060009054906101000a900460ff169050919050565b600460009054906101000a900473ffffffffffffffffffffffffffffffffffffffff1673ffffffffffffffffffffffffffffffffffffffff163373ffffffffffffffffffffffffffffffffffffffff16146107d9576040517f08c379a00000000000000000000000000000000000000000000000000000000081526004016107d090610f1f565b60405180910390fd5b6001600082815260200190815260200160002060009054906101000a900460ff161561083a576040517f08c379a000000000000000000000000000000000000000000000000000000000815260040161083190611211565b60405180910390fd5b600180600083815260200190815260200160002060006101000a81548160ff0219169083151502179055507fe1e93aab4d6cae623ae197f9c4d63ac5eede4c69f9d0fbc92e4dbb0766abd115816040516108949190611231565b60405180910390a150565b600460009054906101000a900473ffffffffffffffffffffffffffffffffffffffff1681565b8280546108d190610ea2565b90600052602060002090601f0160209004810192826108f3576000855561093a565b82601f1061090c57805160ff191683800117855561093a565b8280016001018555821561093a579182015b8281111561093957825182559160200191906001019061091e565b5b509050610947919061094b565b5090565b5b8082111561096457600081600090555060010161094c565b5090565b6000604051905090565b600080fd5b600080fd5b6000819050919050565b61098f8161097c565b811461099a57600080fd5b50565b6000813590506109ac81610986565b92915050565b6000602082840312156109c8576109c7610972565b5b60006109d68482850161099d565b91505092915050565b60008115159050919050565b6109f4816109df565b82525050565b6000602082019050610a0f60008301846109eb565b92915050565b6000819050919050565b610a2881610a15565b82525050565b6000602082019050610a436000830184610a1f565b92915050565b610a5281610a15565b8114610a5d57600080fd5b50565b600081359050610a6f81610a49565b92915050565b600060208284031215610a8b57610a8a610972565b5b6000610a9984828501610a60565b91505092915050565b600081519050919050565b600082825260208201905092915050565b60005b83811015610adc578082015181840152602081019050610ac1565b83811115610aeb576000848401525b50505050565b6000601f19601f8301169050919050565b6000610b0d82610aa2565b610b178185610aad565b9350610b27818560208601610abe565b610b3081610af1565b840191505092915050565b6000606082019050610b506000830186610a1f565b8181036020830152610b628185610b02565b9050610b716040830184610a1f565b949350505050565b600080fd5b600080fd5b7f4e487b7100000000000000000000000000000000000000000000000000000000600052604160045260246000fd5b610bbb82610af1565b810181811067ffffffffffffffff82111715610bda57610bd9610b83565b5b80604052505050565b6000610bed610968565b9050610bf98282610bb2565b919050565b600067ffffffffffffffff821115610c1957610c18610b83565b5b610c2282610af1565b9050602081019050919050565b82818337600083830152505050565b6000610c51610c4c84610bfe565b610be3565b905082815260208101848484011115610c6d57610c6c610b7e565b5b610c78848285610c2f565b509392505050565b600082601f830112610c9557610c94610b79565b5b8135610ca5848260208601610c3e565b91505092915050565b600060208284031215610cc457610cc3610972565b5b600082013567ffffffffffffffff811115610ce257610ce1610977565b5b610cee84828501610c80565b91505092915050565b60008060408385031215610d0e57610d0d610972565b5b6000610d1c85828601610a60565b9250506020610d2d8582860161099d565b9150509250929050565b600081519050919050565b600082825260208201905092915050565b6000819050602082019050919050565b610d6c81610a15565b82525050565b6000610d7e8383610d63565b60208301905092915050565b6000602082019050919050565b6000610da282610d37565b610dac8185610d42565b9350610db783610d53565b8060005b83811015610de8578151610dcf8882610d72565b9750610dda83610d8a565b925050600181019050610dbb565b5085935050505092915050565b60006020820190508181036000830152610e0f8184610d97565b905092915050565b600073ffffffffffffffffffffffffffffffffffffffff82169050919050565b6000610e4282610e17565b9050919050565b610e5281610e37565b82525050565b6000602082019050610e6d6000830184610e49565b92915050565b7f4e487b7100000000000000000000000000000000000000000000000000000000600052602260045260246000fd5b60006002820490506001821680610eba57607f821691505b602082108103610ecd57610ecc610e73565b5b50919050565b7f4e6f7420617574686f72697a6564000000000000000000000000000000000000600082015250565b6000610f09600e83610aad565b9150610f1482610ed3565b602082019050919050565b60006020820190508181036000830152610f3881610efc565b9050919050565b7f4e487b7100000000000000000000000000000000000000000000000000000000600052601160045260246000fd5b6000610f7982610a15565b91507fffffffffffffffffffffffffffffffffffffffffffffffffffffffffffffffff8203610fab57610faa610f3f565b5b600182019050919050565b6000604082019050610fcb6000830185610a1f565b8181036020830152610fdd8184610b02565b90509392505050565b7f566f746572204e6f742052656769737465726564000000000000000000000000600082015250565b600061101c601483610aad565b915061102782610fe6565b602082019050919050565b6000602082019050818103600083015261104b8161100f565b9050919050565b7f416c726561647920566f74656400000000000000000000000000000000000000600082015250565b6000611088600d83610aad565b915061109382611052565b602082019050919050565b600060208201905081810360008301526110b78161107b565b9050919050565b7f496e76616c69642063616e646964617465204944000000000000000000000000600082015250565b60006110f4601483610aad565b91506110ff826110be565b602082019050919050565b60006020820190508181036000830152611123816110e7565b9050919050565b6111338161097c565b82525050565b600060408201905061114e6000830185610a1f565b61115b602083018461112a565b9392505050565b600061116d82610a15565b915061117883610a15565b92508282101561118b5761118a610f3f565b5b828203905092915050565b7f4e487b7100000000000000000000000000000000000000000000000000000000600052603260045260246000fd5b7f416c726561647920526567697374657265640000000000000000000000000000600082015250565b60006111fb601283610aad565b9150611206826111c5565b602082019050919050565b6000602082019050818103600083015261122a816111ee565b9050919050565b6000602082019050611246600083018461112a565b9291505056fea2646970667358221220f5b071e6aac18bd5a7993d2a2e91f41b4c6d115b1112b0991491f7dfa22e429e64736f6c634300080d0033",
  "immutableReferences": {},
  "source": "// SPDX-License-Identifier: MIT\npragma solidity ^0.8.0;\n\ncontract Voting {\n    struct Candidate {\n        uint id;\n        string name;\n        uint voteCount;\n    }\n\n    // Mappings\n    mapping(uint => Candidate) public candidates;\n    mapping(bytes32 => bool) public isEligible;\n    mapping(bytes32 => bool) public hasVoted;\n    uint public candidatesCount;\n\n    // log key actions\n    event VoterRegistered(bytes32 voterHash);\n    event VoteCasted(uint candidateId, bytes32 voterHash);\n    event CandidateAdded(uint candidateId, string name);\n\n    address public admin;\n    constructor() {\n        admin = msg.sender;\n    }\n\n    modifier onlyAdmin() {\n        require(msg.sender == admin, \"Not authorized\");\n        _;\n    }\n\n    // register the voter, only admins should be able to access\n    function registerVoterHash(bytes32 voterHash) public onlyAdmin {\n        require(!isEligible[voterHash], \"Already Registered\");\n        isEligible[voterHash] = true;\n        emit VoterRegistered(voterHash);\n    }\n\n    // checks if user has voted\n    function checkVoterStatus(bytes32 voterHash) public view returns (bool) {\n        return hasVoted[voterHash];\n    }\n\n    // to vote - increase Candidates votecount++\n    function vote(uint candidateId, bytes32 voterHash) public {\n        require(isEligible[voterHash], \"Voter Not Registered\");\n        require(!hasVoted[voterHash], \"Already Voted\");\n        require(candidateId > 0 && candidateId <= candidatesCount, \"Invalid candidate ID\");\n        \n        candidates[candidateId].voteCount++;\n        hasVoted[voterHash] = true;\n        emit VoteCasted(candidateId, voterHash);\n    }\n\n    // to check if the user Voter Hash is valid\n    function getVoter(bytes32 voterHash) public view returns (bool) {\n        return isEligible[voterHash];\n    }\n\n    // get the voter counts for all candidates - Public\n    function getCount() public view returns (uint[] memory) {\n        uint[] memory voteCounts = new uint[] (candidatesCount);\n        for (uint i = 1; i<= candidatesCount; i++) {\n            voteCounts[i-1] = candidates[i].voteCount;\n        }\n        return voteCounts;\n    }\n\n    // to add a candidate - Admin Only access\n    function addCandidate(string memory _name) public onlyAdmin {\n        candidatesCount++;\n        candidates[candidatesCount] = Candidate(candidatesCount, _name, 0);\n        emit CandidateAdded(candidatesCount, _name);\n    }\n}",
  "sourcePath": "/Users/anmol/Documents/Computer Science/nerdies-vote/smart-contracts/contracts/Voting.sol",
  "compiler": {
    "name": "solc",
    "version": "0.8.13+commit.abaa5c0e.Emscripten.clang"
  },
  "schemaVersion": "3.4.16",
  "updatedAt": "2024-11-12T04:26:21.669Z",
  "networkType": "ethereum",
  "devdoc": {
    "kind": "dev",
    "methods": {},
    "version": 1
  },
  "userdoc": {
    "kind": "user",
    "methods": {},
    "version": 1
  }
}